{
  "contractName": "Exchange",
  "abi": [
    {
      "inputs": [
        {
          "internalType": "address",
          "name": "_token",
          "type": "address"
        }
      ],
      "stateMutability": "nonpayable",
      "type": "constructor"
    },
    {
      "anonymous": false,
      "inputs": [
        {
          "indexed": true,
          "internalType": "address",
          "name": "owner",
          "type": "address"
        },
        {
          "indexed": true,
          "internalType": "address",
          "name": "spender",
          "type": "address"
        },
        {
          "indexed": false,
          "internalType": "uint256",
          "name": "value",
          "type": "uint256"
        }
      ],
      "name": "Approval",
      "type": "event"
    },
    {
      "anonymous": false,
      "inputs": [
        {
          "indexed": true,
          "internalType": "address",
          "name": "from",
          "type": "address"
        },
        {
          "indexed": true,
          "internalType": "address",
          "name": "to",
          "type": "address"
        },
        {
          "indexed": false,
          "internalType": "uint256",
          "name": "value",
          "type": "uint256"
        }
      ],
      "name": "Transfer",
      "type": "event"
    },
    {
      "inputs": [
        {
          "internalType": "address",
          "name": "owner",
          "type": "address"
        },
        {
          "internalType": "address",
          "name": "spender",
          "type": "address"
        }
      ],
      "name": "allowance",
      "outputs": [
        {
          "internalType": "uint256",
          "name": "",
          "type": "uint256"
        }
      ],
      "stateMutability": "view",
      "type": "function"
    },
    {
      "inputs": [
        {
          "internalType": "address",
          "name": "spender",
          "type": "address"
        },
        {
          "internalType": "uint256",
          "name": "amount",
          "type": "uint256"
        }
      ],
      "name": "approve",
      "outputs": [
        {
          "internalType": "bool",
          "name": "",
          "type": "bool"
        }
      ],
      "stateMutability": "nonpayable",
      "type": "function"
    },
    {
      "inputs": [
        {
          "internalType": "address",
          "name": "account",
          "type": "address"
        }
      ],
      "name": "balanceOf",
      "outputs": [
        {
          "internalType": "uint256",
          "name": "",
          "type": "uint256"
        }
      ],
      "stateMutability": "view",
      "type": "function"
    },
    {
      "inputs": [],
      "name": "decimals",
      "outputs": [
        {
          "internalType": "uint8",
          "name": "",
          "type": "uint8"
        }
      ],
      "stateMutability": "view",
      "type": "function"
    },
    {
      "inputs": [
        {
          "internalType": "address",
          "name": "spender",
          "type": "address"
        },
        {
          "internalType": "uint256",
          "name": "subtractedValue",
          "type": "uint256"
        }
      ],
      "name": "decreaseAllowance",
      "outputs": [
        {
          "internalType": "bool",
          "name": "",
          "type": "bool"
        }
      ],
      "stateMutability": "nonpayable",
      "type": "function"
    },
    {
      "inputs": [],
      "name": "factoryAddress",
      "outputs": [
        {
          "internalType": "address",
          "name": "",
          "type": "address"
        }
      ],
      "stateMutability": "view",
      "type": "function"
    },
    {
      "inputs": [
        {
          "internalType": "address",
          "name": "spender",
          "type": "address"
        },
        {
          "internalType": "uint256",
          "name": "addedValue",
          "type": "uint256"
        }
      ],
      "name": "increaseAllowance",
      "outputs": [
        {
          "internalType": "bool",
          "name": "",
          "type": "bool"
        }
      ],
      "stateMutability": "nonpayable",
      "type": "function"
    },
    {
      "inputs": [],
      "name": "name",
      "outputs": [
        {
          "internalType": "string",
          "name": "",
          "type": "string"
        }
      ],
      "stateMutability": "view",
      "type": "function"
    },
    {
      "inputs": [],
      "name": "symbol",
      "outputs": [
        {
          "internalType": "string",
          "name": "",
          "type": "string"
        }
      ],
      "stateMutability": "view",
      "type": "function"
    },
    {
      "inputs": [],
      "name": "tokenAddress",
      "outputs": [
        {
          "internalType": "address",
          "name": "",
          "type": "address"
        }
      ],
      "stateMutability": "view",
      "type": "function"
    },
    {
      "inputs": [],
      "name": "totalSupply",
      "outputs": [
        {
          "internalType": "uint256",
          "name": "",
          "type": "uint256"
        }
      ],
      "stateMutability": "view",
      "type": "function"
    },
    {
      "inputs": [
        {
          "internalType": "address",
          "name": "recipient",
          "type": "address"
        },
        {
          "internalType": "uint256",
          "name": "amount",
          "type": "uint256"
        }
      ],
      "name": "transfer",
      "outputs": [
        {
          "internalType": "bool",
          "name": "",
          "type": "bool"
        }
      ],
      "stateMutability": "nonpayable",
      "type": "function"
    },
    {
      "inputs": [
        {
          "internalType": "address",
          "name": "sender",
          "type": "address"
        },
        {
          "internalType": "address",
          "name": "recipient",
          "type": "address"
        },
        {
          "internalType": "uint256",
          "name": "amount",
          "type": "uint256"
        }
      ],
      "name": "transferFrom",
      "outputs": [
        {
          "internalType": "bool",
          "name": "",
          "type": "bool"
        }
      ],
      "stateMutability": "nonpayable",
      "type": "function"
    },
    {
      "inputs": [
        {
          "internalType": "uint256",
          "name": "_tokenAmount",
          "type": "uint256"
        }
      ],
      "name": "addLiquidity",
      "outputs": [
        {
          "internalType": "uint256",
          "name": "",
          "type": "uint256"
        }
      ],
      "stateMutability": "payable",
      "type": "function"
    },
    {
      "inputs": [
        {
          "internalType": "uint256",
          "name": "_amount",
          "type": "uint256"
        }
      ],
      "name": "removeLiquidity",
      "outputs": [
        {
          "internalType": "uint256",
          "name": "",
          "type": "uint256"
        },
        {
          "internalType": "uint256",
          "name": "",
          "type": "uint256"
        }
      ],
      "stateMutability": "nonpayable",
      "type": "function"
    },
    {
      "inputs": [],
      "name": "getReserve",
      "outputs": [
        {
          "internalType": "uint256",
          "name": "",
          "type": "uint256"
        }
      ],
      "stateMutability": "view",
      "type": "function"
    },
    {
      "inputs": [
        {
          "internalType": "uint256",
          "name": "_ethSold",
          "type": "uint256"
        }
      ],
      "name": "getTokenAmount",
      "outputs": [
        {
          "internalType": "uint256",
          "name": "",
          "type": "uint256"
        }
      ],
      "stateMutability": "view",
      "type": "function"
    },
    {
      "inputs": [
        {
          "internalType": "uint256",
          "name": "_tokenSold",
          "type": "uint256"
        }
      ],
      "name": "getEthAmount",
      "outputs": [
        {
          "internalType": "uint256",
          "name": "",
          "type": "uint256"
        }
      ],
      "stateMutability": "view",
      "type": "function"
    },
    {
      "inputs": [
        {
          "internalType": "uint256",
          "name": "_minTokens",
          "type": "uint256"
        }
      ],
      "name": "ethToTokenSwap",
      "outputs": [],
      "stateMutability": "payable",
      "type": "function"
    },
    {
      "inputs": [
        {
          "internalType": "uint256",
          "name": "_minTokens",
          "type": "uint256"
        },
        {
          "internalType": "address",
          "name": "_recipient",
          "type": "address"
        }
      ],
      "name": "ethToTokenTransfer",
      "outputs": [],
      "stateMutability": "payable",
      "type": "function"
    },
    {
      "inputs": [
        {
          "internalType": "uint256",
          "name": "_tokensSold",
          "type": "uint256"
        },
        {
          "internalType": "uint256",
          "name": "_minEth",
          "type": "uint256"
        }
      ],
      "name": "tokenToEthSwap",
      "outputs": [],
      "stateMutability": "payable",
      "type": "function"
    },
    {
      "inputs": [
        {
          "internalType": "uint256",
          "name": "_tokensSold",
          "type": "uint256"
        },
        {
          "internalType": "uint256",
          "name": "_minTokensBought",
          "type": "uint256"
        },
        {
          "internalType": "address",
          "name": "_tokenAddress",
          "type": "address"
        }
      ],
      "name": "tokenToTokenSwap",
      "outputs": [],
      "stateMutability": "nonpayable",
      "type": "function"
    }
  ],
  "bytecode": "0x60806040523480156200001157600080fd5b506040516200316f3803806200316f83398181016040528101906200003791906200029a565b6040518060400160405280600b81526020017f4d696e69737761702d56310000000000000000000000000000000000000000008152506040518060400160405280600781526020017f4d494e492d5631000000000000000000000000000000000000000000000000008152508160039080519060200190620000bb929190620001d3565b508060049080519060200190620000d4929190620001d3565b505050600073ffffffffffffffffffffffffffffffffffffffff168173ffffffffffffffffffffffffffffffffffffffff1614156200014a576040517f08c379a00000000000000000000000000000000000000000000000000000000081526004016200014190620002ed565b60405180910390fd5b80600560006101000a81548173ffffffffffffffffffffffffffffffffffffffff021916908373ffffffffffffffffffffffffffffffffffffffff16021790555033600660006101000a81548173ffffffffffffffffffffffffffffffffffffffff021916908373ffffffffffffffffffffffffffffffffffffffff16021790555050620003fc565b828054620001e19062000354565b90600052602060002090601f01602090048101928262000205576000855562000251565b82601f106200022057805160ff191683800117855562000251565b8280016001018555821562000251579182015b828111156200025057825182559160200191906001019062000233565b5b50905062000260919062000264565b5090565b5b808211156200027f57600081600090555060010162000265565b5090565b6000815190506200029481620003e2565b92915050565b600060208284031215620002ad57600080fd5b6000620002bd8482850162000283565b91505092915050565b6000620002d56015836200030f565b9150620002e282620003b9565b602082019050919050565b600060208201905081810360008301526200030881620002c6565b9050919050565b600082825260208201905092915050565b60006200032d8262000334565b9050919050565b600073ffffffffffffffffffffffffffffffffffffffff82169050919050565b600060028204905060018216806200036d57607f821691505b602082108114156200038457620003836200038a565b5b50919050565b7f4e487b7100000000000000000000000000000000000000000000000000000000600052602260045260246000fd5b7f696e76616c696420746f6b656e20616464726573730000000000000000000000600082015250565b620003ed8162000320565b8114620003f957600080fd5b50565b612d63806200040c6000396000f3fe6080604052600436106101355760003560e01c806395d89b41116100ab578063a9059cbb1161006f578063a9059cbb1461045f578063c2507ac11461049c578063dd62ed3e146104d9578063e0486c8a14610516578063f7a7e32414610532578063f979dcd71461055b57610135565b806395d89b4114610363578063966dae0e1461038e5780639c8f9f23146103b95780639d76ea58146103f7578063a457c2d71461042257610135565b8063389d9a40116100fd578063389d9a4014610235578063395093511461025157806351c6590a1461028e57806359bf5d39146102be57806370a08231146102e95780638fc7a25d1461032657610135565b806306fdde031461013a578063095ea7b31461016557806318160ddd146101a257806323b872dd146101cd578063313ce5671461020a575b600080fd5b34801561014657600080fd5b5061014f610577565b60405161015c9190612386565b60405180910390f35b34801561017157600080fd5b5061018c60048036038101906101879190611eaa565b610609565b604051610199919061236b565b60405180910390f35b3480156101ae57600080fd5b506101b7610627565b6040516101c491906125c8565b60405180910390f35b3480156101d957600080fd5b506101f460048036038101906101ef9190611e5b565b610631565b604051610201919061236b565b60405180910390f35b34801561021657600080fd5b5061021f610729565b60405161022c9190612635565b60405180910390f35b61024f600480360381019061024a9190611f61565b610732565b005b34801561025d57600080fd5b5061027860048036038101906102739190611eaa565b610740565b604051610285919061236b565b60405180910390f35b6102a860048036038101906102a39190611f0f565b6107ec565b6040516102b591906125c8565b60405180910390f35b3480156102ca57600080fd5b506102d3610a38565b6040516102e091906125c8565b60405180910390f35b3480156102f557600080fd5b50610310600480360381019061030b9190611dcd565b610aea565b60405161031d91906125c8565b60405180910390f35b34801561033257600080fd5b5061034d60048036038101906103489190611f0f565b610b32565b60405161035a91906125c8565b60405180910390f35b34801561036f57600080fd5b50610378610b95565b6040516103859190612386565b60405180910390f35b34801561039a57600080fd5b506103a3610c27565b6040516103b091906122f0565b60405180910390f35b3480156103c557600080fd5b506103e060048036038101906103db9190611f0f565b610c4d565b6040516103ee92919061260c565b60405180910390f35b34801561040357600080fd5b5061040c610dec565b60405161041991906122f0565b60405180910390f35b34801561042e57600080fd5b5061044960048036038101906104449190611eaa565b610e12565b604051610456919061236b565b60405180910390f35b34801561046b57600080fd5b5061048660048036038101906104819190611eaa565b610efd565b604051610493919061236b565b60405180910390f35b3480156104a857600080fd5b506104c360048036038101906104be9190611f0f565b610f1b565b6040516104d091906125c8565b60405180910390f35b3480156104e557600080fd5b5061050060048036038101906104fb9190611e1f565b610f7e565b60405161050d91906125c8565b60405180910390f35b610530600480360381019061052b9190611f9d565b611005565b005b34801561053e57600080fd5b5061055960048036038101906105549190611fd9565b611162565b005b61057560048036038101906105709190611f0f565b6113fe565b005b60606003805461058690612809565b80601f01602080910402602001604051908101604052809291908181526020018280546105b290612809565b80156105ff5780601f106105d4576101008083540402835291602001916105ff565b820191906000526020600020905b8154815290600101906020018083116105e257829003601f168201915b5050505050905090565b600061061d61061661140b565b8484611413565b6001905092915050565b6000600254905090565b600061063e8484846115de565b6000600160008673ffffffffffffffffffffffffffffffffffffffff1673ffffffffffffffffffffffffffffffffffffffff168152602001908152602001600020600061068961140b565b73ffffffffffffffffffffffffffffffffffffffff1673ffffffffffffffffffffffffffffffffffffffff16815260200190815260200160002054905082811015610709576040517f08c379a000000000000000000000000000000000000000000000000000000000815260040161070090612488565b60405180910390fd5b61071d8561071561140b565b858403611413565b60019150509392505050565b60006012905090565b61073c828261185f565b5050565b60006107e261074d61140b565b84846001600061075b61140b565b73ffffffffffffffffffffffffffffffffffffffff1673ffffffffffffffffffffffffffffffffffffffff16815260200190815260200160002060008873ffffffffffffffffffffffffffffffffffffffff1673ffffffffffffffffffffffffffffffffffffffff168152602001908152602001600020546107dd919061266c565b611413565b6001905092915050565b6000806107f7610a38565b14156108cd576000600560009054906101000a900473ffffffffffffffffffffffffffffffffffffffff1690508073ffffffffffffffffffffffffffffffffffffffff166323b872dd3330866040518463ffffffff1660e01b81526004016108619392919061230b565b602060405180830381600087803b15801561087b57600080fd5b505af115801561088f573d6000803e3d6000fd5b505050506040513d601f19601f820116820180604052508101906108b39190611ee6565b5060004790506108c3338261197e565b8092505050610a33565b600034476108db919061274d565b905060006108e7610a38565b905060008282346108f891906126f3565b61090291906126c2565b905080851015610947576040517f08c379a000000000000000000000000000000000000000000000000000000000815260040161093e90612528565b60405180910390fd5b6000600560009054906101000a900473ffffffffffffffffffffffffffffffffffffffff1690508073ffffffffffffffffffffffffffffffffffffffff166323b872dd3330856040518463ffffffff1660e01b81526004016109ab9392919061230b565b602060405180830381600087803b1580156109c557600080fd5b505af11580156109d9573d6000803e3d6000fd5b505050506040513d601f19601f820116820180604052508101906109fd9190611ee6565b5060008434610a0a610627565b610a1491906126f3565b610a1e91906126c2565b9050610a2a338261197e565b80955050505050505b919050565b6000600560009054906101000a900473ffffffffffffffffffffffffffffffffffffffff1673ffffffffffffffffffffffffffffffffffffffff166370a08231306040518263ffffffff1660e01b8152600401610a9591906122f0565b60206040518083038186803b158015610aad57600080fd5b505afa158015610ac1573d6000803e3d6000fd5b505050506040513d601f19601f82011682018060405250810190610ae59190611f38565b905090565b60008060008373ffffffffffffffffffffffffffffffffffffffff1673ffffffffffffffffffffffffffffffffffffffff168152602001908152602001600020549050919050565b6000808211610b76576040517f08c379a0000000000000000000000000000000000000000000000000000000008152600401610b6d90612468565b60405180910390fd5b6000610b80610a38565b9050610b8d838247611ade565b915050919050565b606060048054610ba490612809565b80601f0160208091040260200160405190810160405280929190818152602001828054610bd090612809565b8015610c1d5780601f10610bf257610100808354040283529160200191610c1d565b820191906000526020600020905b815481529060010190602001808311610c0057829003601f168201915b5050505050905090565b600660009054906101000a900473ffffffffffffffffffffffffffffffffffffffff1681565b60008060008311610c93576040517f08c379a0000000000000000000000000000000000000000000000000000000008152600401610c8a90612428565b60405180910390fd5b6000610c9d610627565b8447610ca991906126f3565b610cb391906126c2565b90506000610cbf610627565b85610cc8610a38565b610cd291906126f3565b610cdc91906126c2565b9050610ce83386611b83565b3373ffffffffffffffffffffffffffffffffffffffff166108fc839081150290604051600060405180830381858888f19350505050158015610d2e573d6000803e3d6000fd5b50600560009054906101000a900473ffffffffffffffffffffffffffffffffffffffff1673ffffffffffffffffffffffffffffffffffffffff1663a9059cbb33836040518363ffffffff1660e01b8152600401610d8c929190612342565b602060405180830381600087803b158015610da657600080fd5b505af1158015610dba573d6000803e3d6000fd5b505050506040513d601f19601f82011682018060405250810190610dde9190611ee6565b508181935093505050915091565b600560009054906101000a900473ffffffffffffffffffffffffffffffffffffffff1681565b60008060016000610e2161140b565b73ffffffffffffffffffffffffffffffffffffffff1673ffffffffffffffffffffffffffffffffffffffff16815260200190815260200160002060008573ffffffffffffffffffffffffffffffffffffffff1673ffffffffffffffffffffffffffffffffffffffff16815260200190815260200160002054905082811015610ede576040517f08c379a0000000000000000000000000000000000000000000000000000000008152600401610ed590612588565b60405180910390fd5b610ef2610ee961140b565b85858403611413565b600191505092915050565b6000610f11610f0a61140b565b84846115de565b6001905092915050565b6000808211610f5f576040517f08c379a0000000000000000000000000000000000000000000000000000000008152600401610f5690612448565b60405180910390fd5b6000610f69610a38565b9050610f76834783611ade565b915050919050565b6000600160008473ffffffffffffffffffffffffffffffffffffffff1673ffffffffffffffffffffffffffffffffffffffff16815260200190815260200160002060008373ffffffffffffffffffffffffffffffffffffffff1673ffffffffffffffffffffffffffffffffffffffff16815260200190815260200160002054905092915050565b600061100f610a38565b9050600061101e848347611ade565b905082811015611063576040517f08c379a000000000000000000000000000000000000000000000000000000000815260040161105a906124e8565b60405180910390fd5b600560009054906101000a900473ffffffffffffffffffffffffffffffffffffffff1673ffffffffffffffffffffffffffffffffffffffff166323b872dd3330876040518463ffffffff1660e01b81526004016110c29392919061230b565b602060405180830381600087803b1580156110dc57600080fd5b505af11580156110f0573d6000803e3d6000fd5b505050506040513d601f19601f820116820180604052508101906111149190611ee6565b503373ffffffffffffffffffffffffffffffffffffffff166108fc829081150290604051600060405180830381858888f1935050505015801561115b573d6000803e3d6000fd5b5050505050565b6000600660009054906101000a900473ffffffffffffffffffffffffffffffffffffffff1673ffffffffffffffffffffffffffffffffffffffff166306f2bf62836040518263ffffffff1660e01b81526004016111bf91906122f0565b602060405180830381600087803b1580156111d957600080fd5b505af11580156111ed573d6000803e3d6000fd5b505050506040513d601f19601f820116820180604052508101906112119190611df6565b90503073ffffffffffffffffffffffffffffffffffffffff168173ffffffffffffffffffffffffffffffffffffffff161415801561127c5750600073ffffffffffffffffffffffffffffffffffffffff168173ffffffffffffffffffffffffffffffffffffffff1614155b6112bb576040517f08c379a00000000000000000000000000000000000000000000000000000000081526004016112b2906124a8565b60405180910390fd5b60006112c5610a38565b905060006112d4868347611ade565b9050600560009054906101000a900473ffffffffffffffffffffffffffffffffffffffff1673ffffffffffffffffffffffffffffffffffffffff166323b872dd3330896040518463ffffffff1660e01b81526004016113359392919061230b565b602060405180830381600087803b15801561134f57600080fd5b505af1158015611363573d6000803e3d6000fd5b505050506040513d601f19601f820116820180604052508101906113879190611ee6565b508273ffffffffffffffffffffffffffffffffffffffff1663389d9a408287336040518463ffffffff1660e01b81526004016113c49291906125e3565b6000604051808303818588803b1580156113dd57600080fd5b505af11580156113f1573d6000803e3d6000fd5b5050505050505050505050565b611408813361185f565b50565b600033905090565b600073ffffffffffffffffffffffffffffffffffffffff168373ffffffffffffffffffffffffffffffffffffffff161415611483576040517f08c379a000000000000000000000000000000000000000000000000000000000815260040161147a90612548565b60405180910390fd5b600073ffffffffffffffffffffffffffffffffffffffff168273ffffffffffffffffffffffffffffffffffffffff1614156114f3576040517f08c379a00000000000000000000000000000000000000000000000000000000081526004016114ea906123e8565b60405180910390fd5b80600160008573ffffffffffffffffffffffffffffffffffffffff1673ffffffffffffffffffffffffffffffffffffffff16815260200190815260200160002060008473ffffffffffffffffffffffffffffffffffffffff1673ffffffffffffffffffffffffffffffffffffffff168152602001908152602001600020819055508173ffffffffffffffffffffffffffffffffffffffff168373ffffffffffffffffffffffffffffffffffffffff167f8c5be1e5ebec7d5bd14f71427d1e84f3dd0314c0f7b2291e5b200ac8c7c3b925836040516115d191906125c8565b60405180910390a3505050565b600073ffffffffffffffffffffffffffffffffffffffff168373ffffffffffffffffffffffffffffffffffffffff16141561164e576040517f08c379a000000000000000000000000000000000000000000000000000000000815260040161164590612508565b60405180910390fd5b600073ffffffffffffffffffffffffffffffffffffffff168273ffffffffffffffffffffffffffffffffffffffff1614156116be576040517f08c379a00000000000000000000000000000000000000000000000000000000081526004016116b5906123a8565b60405180910390fd5b6116c9838383611d5a565b60008060008573ffffffffffffffffffffffffffffffffffffffff1673ffffffffffffffffffffffffffffffffffffffff1681526020019081526020016000205490508181101561174f576040517f08c379a000000000000000000000000000000000000000000000000000000000815260040161174690612408565b60405180910390fd5b8181036000808673ffffffffffffffffffffffffffffffffffffffff1673ffffffffffffffffffffffffffffffffffffffff16815260200190815260200160002081905550816000808573ffffffffffffffffffffffffffffffffffffffff1673ffffffffffffffffffffffffffffffffffffffff16815260200190815260200160002060008282546117e2919061266c565b925050819055508273ffffffffffffffffffffffffffffffffffffffff168473ffffffffffffffffffffffffffffffffffffffff167fddf252ad1be2c89b69c2b068fc378daa952ba7f163c4a11628f55a4df523b3ef8460405161184691906125c8565b60405180910390a3611859848484611d5f565b50505050565b6000611869610a38565b9050600061188334344761187d919061274d565b84611ade565b9050838110156118c8576040517f08c379a00000000000000000000000000000000000000000000000000000000081526004016118bf906124e8565b60405180910390fd5b600560009054906101000a900473ffffffffffffffffffffffffffffffffffffffff1673ffffffffffffffffffffffffffffffffffffffff1663a9059cbb84836040518363ffffffff1660e01b8152600401611925929190612342565b602060405180830381600087803b15801561193f57600080fd5b505af1158015611953573d6000803e3d6000fd5b505050506040513d601f19601f820116820180604052508101906119779190611ee6565b5050505050565b600073ffffffffffffffffffffffffffffffffffffffff168273ffffffffffffffffffffffffffffffffffffffff1614156119ee576040517f08c379a00000000000000000000000000000000000000000000000000000000081526004016119e5906125a8565b60405180910390fd5b6119fa60008383611d5a565b8060026000828254611a0c919061266c565b92505081905550806000808473ffffffffffffffffffffffffffffffffffffffff1673ffffffffffffffffffffffffffffffffffffffff1681526020019081526020016000206000828254611a61919061266c565b925050819055508173ffffffffffffffffffffffffffffffffffffffff16600073ffffffffffffffffffffffffffffffffffffffff167fddf252ad1be2c89b69c2b068fc378daa952ba7f163c4a11628f55a4df523b3ef83604051611ac691906125c8565b60405180910390a3611ada60008383611d5f565b5050565b60008083118015611aef5750600082115b611b2e576040517f08c379a0000000000000000000000000000000000000000000000000000000008152600401611b2590612568565b60405180910390fd5b6000606385611b3d91906126f3565b905060008382611b4d91906126f3565b9050600082606487611b5f91906126f3565b611b69919061266c565b90508082611b7791906126c2565b93505050509392505050565b600073ffffffffffffffffffffffffffffffffffffffff168273ffffffffffffffffffffffffffffffffffffffff161415611bf3576040517f08c379a0000000000000000000000000000000000000000000000000000000008152600401611bea906124c8565b60405180910390fd5b611bff82600083611d5a565b60008060008473ffffffffffffffffffffffffffffffffffffffff1673ffffffffffffffffffffffffffffffffffffffff16815260200190815260200160002054905081811015611c85576040517f08c379a0000000000000000000000000000000000000000000000000000000008152600401611c7c906123c8565b60405180910390fd5b8181036000808573ffffffffffffffffffffffffffffffffffffffff1673ffffffffffffffffffffffffffffffffffffffff168152602001908152602001600020819055508160026000828254611cdc919061274d565b92505081905550600073ffffffffffffffffffffffffffffffffffffffff168373ffffffffffffffffffffffffffffffffffffffff167fddf252ad1be2c89b69c2b068fc378daa952ba7f163c4a11628f55a4df523b3ef84604051611d4191906125c8565b60405180910390a3611d5583600084611d5f565b505050565b505050565b505050565b600081359050611d7381612ce8565b92915050565b600081519050611d8881612ce8565b92915050565b600081519050611d9d81612cff565b92915050565b600081359050611db281612d16565b92915050565b600081519050611dc781612d16565b92915050565b600060208284031215611ddf57600080fd5b6000611ded84828501611d64565b91505092915050565b600060208284031215611e0857600080fd5b6000611e1684828501611d79565b91505092915050565b60008060408385031215611e3257600080fd5b6000611e4085828601611d64565b9250506020611e5185828601611d64565b9150509250929050565b600080600060608486031215611e7057600080fd5b6000611e7e86828701611d64565b9350506020611e8f86828701611d64565b9250506040611ea086828701611da3565b9150509250925092565b60008060408385031215611ebd57600080fd5b6000611ecb85828601611d64565b9250506020611edc85828601611da3565b9150509250929050565b600060208284031215611ef857600080fd5b6000611f0684828501611d8e565b91505092915050565b600060208284031215611f2157600080fd5b6000611f2f84828501611da3565b91505092915050565b600060208284031215611f4a57600080fd5b6000611f5884828501611db8565b91505092915050565b60008060408385031215611f7457600080fd5b6000611f8285828601611da3565b9250506020611f9385828601611d64565b9150509250929050565b60008060408385031215611fb057600080fd5b6000611fbe85828601611da3565b9250506020611fcf85828601611da3565b9150509250929050565b600080600060608486031215611fee57600080fd5b6000611ffc86828701611da3565b935050602061200d86828701611da3565b925050604061201e86828701611d64565b9150509250925092565b61203181612781565b82525050565b61204081612793565b82525050565b600061205182612650565b61205b818561265b565b935061206b8185602086016127d6565b612074816128c8565b840191505092915050565b600061208c60238361265b565b9150612097826128d9565b604082019050919050565b60006120af60228361265b565b91506120ba82612928565b604082019050919050565b60006120d260228361265b565b91506120dd82612977565b604082019050919050565b60006120f560268361265b565b9150612100826129c6565b604082019050919050565b6000612118600e8361265b565b915061212382612a15565b602082019050919050565b600061213b60148361265b565b915061214682612a3e565b602082019050919050565b600061215e60168361265b565b915061216982612a67565b602082019050919050565b600061218160288361265b565b915061218c82612a90565b604082019050919050565b60006121a460188361265b565b91506121af82612adf565b602082019050919050565b60006121c760218361265b565b91506121d282612b08565b604082019050919050565b60006121ea601a8361265b565b91506121f582612b57565b602082019050919050565b600061220d60258361265b565b915061221882612b80565b604082019050919050565b600061223060198361265b565b915061223b82612bcf565b602082019050919050565b600061225360248361265b565b915061225e82612bf8565b604082019050919050565b600061227660108361265b565b915061228182612c47565b602082019050919050565b600061229960258361265b565b91506122a482612c70565b604082019050919050565b60006122bc601f8361265b565b91506122c782612cbf565b602082019050919050565b6122db816127bf565b82525050565b6122ea816127c9565b82525050565b60006020820190506123056000830184612028565b92915050565b60006060820190506123206000830186612028565b61232d6020830185612028565b61233a60408301846122d2565b949350505050565b60006040820190506123576000830185612028565b61236460208301846122d2565b9392505050565b60006020820190506123806000830184612037565b92915050565b600060208201905081810360008301526123a08184612046565b905092915050565b600060208201905081810360008301526123c18161207f565b9050919050565b600060208201905081810360008301526123e1816120a2565b9050919050565b60006020820190508181036000830152612401816120c5565b9050919050565b60006020820190508181036000830152612421816120e8565b9050919050565b600060208201905081810360008301526124418161210b565b9050919050565b600060208201905081810360008301526124618161212e565b9050919050565b6000602082019050818103600083015261248181612151565b9050919050565b600060208201905081810360008301526124a181612174565b9050919050565b600060208201905081810360008301526124c181612197565b9050919050565b600060208201905081810360008301526124e1816121ba565b9050919050565b60006020820190508181036000830152612501816121dd565b9050919050565b6000602082019050818103600083015261252181612200565b9050919050565b6000602082019050818103600083015261254181612223565b9050919050565b6000602082019050818103600083015261256181612246565b9050919050565b6000602082019050818103600083015261258181612269565b9050919050565b600060208201905081810360008301526125a18161228c565b9050919050565b600060208201905081810360008301526125c1816122af565b9050919050565b60006020820190506125dd60008301846122d2565b92915050565b60006040820190506125f860008301856122d2565b6126056020830184612028565b9392505050565b600060408201905061262160008301856122d2565b61262e60208301846122d2565b9392505050565b600060208201905061264a60008301846122e1565b92915050565b600081519050919050565b600082825260208201905092915050565b6000612677826127bf565b9150612682836127bf565b9250827fffffffffffffffffffffffffffffffffffffffffffffffffffffffffffffffff038211156126b7576126b661283b565b5b828201905092915050565b60006126cd826127bf565b91506126d8836127bf565b9250826126e8576126e761286a565b5b828204905092915050565b60006126fe826127bf565b9150612709836127bf565b9250817fffffffffffffffffffffffffffffffffffffffffffffffffffffffffffffffff04831182151516156127425761274161283b565b5b828202905092915050565b6000612758826127bf565b9150612763836127bf565b9250828210156127765761277561283b565b5b828203905092915050565b600061278c8261279f565b9050919050565b60008115159050919050565b600073ffffffffffffffffffffffffffffffffffffffff82169050919050565b6000819050919050565b600060ff82169050919050565b60005b838110156127f45780820151818401526020810190506127d9565b83811115612803576000848401525b50505050565b6000600282049050600182168061282157607f821691505b6020821081141561283557612834612899565b5b50919050565b7f4e487b7100000000000000000000000000000000000000000000000000000000600052601160045260246000fd5b7f4e487b7100000000000000000000000000000000000000000000000000000000600052601260045260246000fd5b7f4e487b7100000000000000000000000000000000000000000000000000000000600052602260045260246000fd5b6000601f19601f8301169050919050565b7f45524332303a207472616e7366657220746f20746865207a65726f206164647260008201527f6573730000000000000000000000000000000000000000000000000000000000602082015250565b7f45524332303a206275726e20616d6f756e7420657863656564732062616c616e60008201527f6365000000000000000000000000000000000000000000000000000000000000602082015250565b7f45524332303a20617070726f766520746f20746865207a65726f20616464726560008201527f7373000000000000000000000000000000000000000000000000000000000000602082015250565b7f45524332303a207472616e7366657220616d6f756e742065786365656473206260008201527f616c616e63650000000000000000000000000000000000000000000000000000602082015250565b7f696e76616c696420616d6f756e74000000000000000000000000000000000000600082015250565b7f657468536f6c6420697320746f6f20736d616c6c000000000000000000000000600082015250565b7f746f6b656e536f6c6420697320746f6f20736d616c6c00000000000000000000600082015250565b7f45524332303a207472616e7366657220616d6f756e742065786365656473206160008201527f6c6c6f77616e6365000000000000000000000000000000000000000000000000602082015250565b7f696e76616c69642065786368616e676520616464726573730000000000000000600082015250565b7f45524332303a206275726e2066726f6d20746865207a65726f2061646472657360008201527f7300000000000000000000000000000000000000000000000000000000000000602082015250565b7f696e73756666696369656e74206f757470757420616d6f756e74000000000000600082015250565b7f45524332303a207472616e736665722066726f6d20746865207a65726f20616460008201527f6472657373000000000000000000000000000000000000000000000000000000602082015250565b7f696e73756666696369656e7420746f6b656e20616d6f756e7400000000000000600082015250565b7f45524332303a20617070726f76652066726f6d20746865207a65726f2061646460008201527f7265737300000000000000000000000000000000000000000000000000000000602082015250565b7f696e76616c696420726573657276657300000000000000000000000000000000600082015250565b7f45524332303a2064656372656173656420616c6c6f77616e63652062656c6f7760008201527f207a65726f000000000000000000000000000000000000000000000000000000602082015250565b7f45524332303a206d696e7420746f20746865207a65726f206164647265737300600082015250565b612cf181612781565b8114612cfc57600080fd5b50565b612d0881612793565b8114612d1357600080fd5b50565b612d1f816127bf565b8114612d2a57600080fd5b5056fea26469706673582212201f53432c455d196c0e2f630297d93d2ad2a48871e5593cccbdb95dfbfdb5818364736f6c63430008040033",
  "immutableReferences": {},
  "source": "// contracts/Exchange.sol\n// SPDX-License-Identifier: MIT\npragma solidity ^0.8.0;\n\nimport \"@openzeppelin/contracts/token/ERC20/IERC20.sol\";\nimport \"@openzeppelin/contracts/token/ERC20/ERC20.sol\";\n\ninterface IFactory {\n  function getExchange(address _tokenAddress) external returns (address);\n}\n\ninterface IExchange {\n  function ethToTokenTransfer(uint256 _minTokens, address _recipient) external payable;\n}\n\ncontract Exchange is ERC20 {\n  address public tokenAddress;\n  address public factoryAddress;\n  \n  constructor(address _token) ERC20(\"Miniswap-V1\", \"MINI-V1\") {\n    require(_token != address(0), \"invalid token address\");\n\n    tokenAddress = _token;\n    factoryAddress = msg.sender;\n  }\n\n  function addLiquidity(uint256 _tokenAmount) public payable returns (uint256) {\n    if (getReserve() == 0) {\n      IERC20 token = IERC20(tokenAddress);\n      token.transferFrom(msg.sender, address(this), _tokenAmount);\n\n      uint256 liquidity = address(this).balance;\n      _mint(msg.sender, liquidity);\n\n      return liquidity;\n    } else {\n      uint256 ethReserve = address(this).balance - msg.value;\n      uint256 tokenReserve = getReserve();\n      uint256 tokenAmount = (msg.value * tokenReserve) / ethReserve;\n      require(_tokenAmount >= tokenAmount, \"insufficient token amount\");\n\n      IERC20 token = IERC20(tokenAddress);\n      token.transferFrom(msg.sender, address(this), tokenAmount);\n\n      uint256 liquidity = (totalSupply() * msg.value) / ethReserve;\n      _mint(msg.sender, liquidity);\n      \n      return liquidity;\n    }\n  }\n\n  function removeLiquidity(uint256 _amount) public returns (uint256, uint256) {\n    require(_amount > 0, \"invalid amount\");\n\n    uint256 ethAmount = (address(this).balance * _amount) / totalSupply();\n    uint256 tokenAmount = (getReserve() * _amount) / totalSupply();\n\n    _burn(msg.sender, _amount);\n    payable(msg.sender).transfer(ethAmount);\n    IERC20(tokenAddress).transfer(msg.sender, tokenAmount);\n\n    return (ethAmount, tokenAmount);\n  }\n\n  function getReserve() public view returns (uint256) {\n    return IERC20(tokenAddress).balanceOf(address(this));\n  }\n\n  // (x + x)(y + y) = xy; y = yx/(x + x)\n  function getAmount(uint256 inputAmount, uint256 inputReserve, uint256 outputReserve) private pure returns (uint256) {\n    require(inputReserve > 0 && outputReserve > 0, \"invalid reserves\");\n\n    uint256 inputAmountWithFee = inputAmount * 99;\n    uint256 numerator = inputAmountWithFee * outputReserve;\n    uint256 denominator = (inputReserve * 100) + inputAmountWithFee;\n\n    return numerator / denominator;\n  }\n\n  function getTokenAmount(uint256 _ethSold) public view returns (uint256) {\n    require(_ethSold > 0, \"ethSold is too small\");\n\n    uint256 tokenReserve = getReserve();\n    return getAmount(_ethSold, address(this).balance, tokenReserve);\n  }\n\n  function getEthAmount(uint256 _tokenSold) public view returns (uint256) {\n    require(_tokenSold > 0, \"tokenSold is too small\");\n\n    uint256 tokenReserve = getReserve();\n    return getAmount(_tokenSold, tokenReserve, address(this).balance);\n  }\n\n  function ethToToken(uint256 _minTokens, address recipient) private {\n    uint256 tokenReserve = getReserve();\n    uint256 tokensBought = getAmount(msg.value, address(this).balance - msg.value, tokenReserve);\n\n    require(tokensBought >= _minTokens, \"insufficient output amount\");\n\n    IERC20(tokenAddress).transfer(recipient, tokensBought);\n  }\n\n  function ethToTokenSwap(uint256 _minTokens) public payable {\n    ethToToken(_minTokens, msg.sender);\n  }\n\n  function ethToTokenTransfer(uint256 _minTokens, address _recipient) public payable {\n    ethToToken(_minTokens, _recipient);\n  }\n\n  function tokenToEthSwap(uint256 _tokensSold, uint256 _minEth) public payable {\n    uint256 tokenReserve = getReserve();\n    uint256 ethBought = getAmount(_tokensSold, tokenReserve, address(this).balance);\n\n    require(ethBought >= _minEth, \"insufficient output amount\");\n\n    IERC20(tokenAddress).transferFrom(msg.sender, address(this), _tokensSold);\n    payable(msg.sender).transfer(ethBought);\n  }\n\n  function tokenToTokenSwap(uint256 _tokensSold, uint256 _minTokensBought, address _tokenAddress) public {\n    address exchangeAddress = IFactory(factoryAddress).getExchange(_tokenAddress);\n    require(exchangeAddress != address(this) && exchangeAddress != address(0), \"invalid exchange address\");\n\n    uint256 tokenReserve = getReserve();\n    uint256 ethBought = getAmount(_tokensSold, tokenReserve, address(this).balance);\n\n    IERC20(tokenAddress).transferFrom(msg.sender, address(this), _tokensSold);\n\n    IExchange(exchangeAddress).ethToTokenTransfer{value: ethBought}(_minTokensBought, msg.sender);\n  }\n}",
  "sourcePath": "/Users/yuhuiyuan/code/miniswap/contracts/Exchange.sol",
  "compiler": {
    "name": "solc",
    "version": "0.8.4+commit.c7e474f2.Emscripten.clang"
  },
  "schemaVersion": "3.4.3",
  "updatedAt": "2021-12-18T15:02:49.310Z",
  "devdoc": {
    "kind": "dev",
    "methods": {
      "allowance(address,address)": {
        "details": "See {IERC20-allowance}."
      },
      "approve(address,uint256)": {
        "details": "See {IERC20-approve}. Requirements: - `spender` cannot be the zero address."
      },
      "balanceOf(address)": {
        "details": "See {IERC20-balanceOf}."
      },
      "decimals()": {
        "details": "Returns the number of decimals used to get its user representation. For example, if `decimals` equals `2`, a balance of `505` tokens should be displayed to a user as `5.05` (`505 / 10 ** 2`). Tokens usually opt for a value of 18, imitating the relationship between Ether and Wei. This is the value {ERC20} uses, unless this function is overridden; NOTE: This information is only used for _display_ purposes: it in no way affects any of the arithmetic of the contract, including {IERC20-balanceOf} and {IERC20-transfer}."
      },
      "decreaseAllowance(address,uint256)": {
        "details": "Atomically decreases the allowance granted to `spender` by the caller. This is an alternative to {approve} that can be used as a mitigation for problems described in {IERC20-approve}. Emits an {Approval} event indicating the updated allowance. Requirements: - `spender` cannot be the zero address. - `spender` must have allowance for the caller of at least `subtractedValue`."
      },
      "increaseAllowance(address,uint256)": {
        "details": "Atomically increases the allowance granted to `spender` by the caller. This is an alternative to {approve} that can be used as a mitigation for problems described in {IERC20-approve}. Emits an {Approval} event indicating the updated allowance. Requirements: - `spender` cannot be the zero address."
      },
      "name()": {
        "details": "Returns the name of the token."
      },
      "symbol()": {
        "details": "Returns the symbol of the token, usually a shorter version of the name."
      },
      "totalSupply()": {
        "details": "See {IERC20-totalSupply}."
      },
      "transfer(address,uint256)": {
        "details": "See {IERC20-transfer}. Requirements: - `recipient` cannot be the zero address. - the caller must have a balance of at least `amount`."
      },
      "transferFrom(address,address,uint256)": {
        "details": "See {IERC20-transferFrom}. Emits an {Approval} event indicating the updated allowance. This is not required by the EIP. See the note at the beginning of {ERC20}. Requirements: - `sender` and `recipient` cannot be the zero address. - `sender` must have a balance of at least `amount`. - the caller must have allowance for ``sender``'s tokens of at least `amount`."
      }
    },
    "version": 1
  },
  "userdoc": {
    "kind": "user",
    "methods": {},
    "version": 1
  }
}